{
  "_format": "hh-sol-artifact-1",
  "contractName": "TreasureHunt",
  "sourceName": "contracts/TreasureHunt.sol",
  "abi": [
    {
      "inputs": [
        {
          "internalType": "address",
          "name": "_tokenAddress",
          "type": "address"
        },
        {
          "internalType": "address",
          "name": "_ownerAddress",
          "type": "address"
        }
      ],
      "stateMutability": "nonpayable",
      "type": "constructor"
    },
    {
      "inputs": [],
      "name": "ReentrancyGuardReentrantCall",
      "type": "error"
    },
    {
      "anonymous": false,
      "inputs": [
        {
          "indexed": true,
          "internalType": "address",
          "name": "winner",
          "type": "address"
        },
        {
          "indexed": false,
          "internalType": "uint256",
          "name": "prize",
          "type": "uint256"
        }
      ],
      "name": "GameWon",
      "type": "event"
    },
    {
      "anonymous": false,
      "inputs": [
        {
          "indexed": true,
          "internalType": "address",
          "name": "player",
          "type": "address"
        },
        {
          "indexed": false,
          "internalType": "uint8",
          "name": "position",
          "type": "uint8"
        }
      ],
      "name": "PlayerMoved",
      "type": "event"
    },
    {
      "anonymous": false,
      "inputs": [
        {
          "indexed": false,
          "internalType": "uint8",
          "name": "newPosition",
          "type": "uint8"
        }
      ],
      "name": "TreasureMoved",
      "type": "event"
    },
    {
      "inputs": [],
      "name": "GRID_SIZE",
      "outputs": [
        {
          "internalType": "uint8",
          "name": "",
          "type": "uint8"
        }
      ],
      "stateMutability": "view",
      "type": "function"
    },
    {
      "inputs": [],
      "name": "TOTAL_CELLS",
      "outputs": [
        {
          "internalType": "uint8",
          "name": "",
          "type": "uint8"
        }
      ],
      "stateMutability": "view",
      "type": "function"
    },
    {
      "inputs": [],
      "name": "gameToken",
      "outputs": [
        {
          "internalType": "contract IERC20",
          "name": "",
          "type": "address"
        }
      ],
      "stateMutability": "view",
      "type": "function"
    },
    {
      "inputs": [],
      "name": "getGameState",
      "outputs": [
        {
          "internalType": "address",
          "name": "",
          "type": "address"
        },
        {
          "internalType": "uint256",
          "name": "",
          "type": "uint256"
        }
      ],
      "stateMutability": "view",
      "type": "function"
    },
    {
      "inputs": [],
      "name": "getTreasurePosition",
      "outputs": [
        {
          "internalType": "uint8",
          "name": "",
          "type": "uint8"
        }
      ],
      "stateMutability": "view",
      "type": "function"
    },
    {
      "inputs": [
        {
          "internalType": "address",
          "name": "",
          "type": "address"
        }
      ],
      "name": "hasMoved",
      "outputs": [
        {
          "internalType": "bool",
          "name": "",
          "type": "bool"
        }
      ],
      "stateMutability": "view",
      "type": "function"
    },
    {
      "inputs": [
        {
          "internalType": "address",
          "name": "",
          "type": "address"
        }
      ],
      "name": "isPlayer",
      "outputs": [
        {
          "internalType": "bool",
          "name": "",
          "type": "bool"
        }
      ],
      "stateMutability": "view",
      "type": "function"
    },
    {
      "inputs": [
        {
          "internalType": "uint8",
          "name": "newPosition",
          "type": "uint8"
        }
      ],
      "name": "move",
      "outputs": [],
      "stateMutability": "nonpayable",
      "type": "function"
    },
    {
      "inputs": [],
      "name": "moveCost",
      "outputs": [
        {
          "internalType": "uint256",
          "name": "",
          "type": "uint256"
        }
      ],
      "stateMutability": "view",
      "type": "function"
    },
    {
      "inputs": [],
      "name": "owner",
      "outputs": [
        {
          "internalType": "address",
          "name": "",
          "type": "address"
        }
      ],
      "stateMutability": "view",
      "type": "function"
    },
    {
      "inputs": [
        {
          "internalType": "address",
          "name": "",
          "type": "address"
        }
      ],
      "name": "playerPositions",
      "outputs": [
        {
          "internalType": "uint8",
          "name": "",
          "type": "uint8"
        }
      ],
      "stateMutability": "view",
      "type": "function"
    },
    {
      "inputs": [
        {
          "internalType": "uint256",
          "name": "",
          "type": "uint256"
        }
      ],
      "name": "players",
      "outputs": [
        {
          "internalType": "address",
          "name": "",
          "type": "address"
        }
      ],
      "stateMutability": "view",
      "type": "function"
    },
    {
      "inputs": [],
      "name": "prizePool",
      "outputs": [
        {
          "internalType": "uint256",
          "name": "",
          "type": "uint256"
        }
      ],
      "stateMutability": "view",
      "type": "function"
    },
    {
      "inputs": [],
      "name": "round",
      "outputs": [
        {
          "internalType": "uint256",
          "name": "",
          "type": "uint256"
        }
      ],
      "stateMutability": "view",
      "type": "function"
    },
    {
      "inputs": [],
      "name": "winner",
      "outputs": [
        {
          "internalType": "address",
          "name": "",
          "type": "address"
        }
      ],
      "stateMutability": "view",
      "type": "function"
    }
  ],
  "bytecode": "0x60806040526107d06004553480156200001757600080fd5b50604051620021423803806200214283398181016040528101906200003d9190620001a7565b600160008190555081600560006101000a81548173ffffffffffffffffffffffffffffffffffffffff021916908373ffffffffffffffffffffffffffffffffffffffff16021790555080600660006101000a81548173ffffffffffffffffffffffffffffffffffffffff021916908373ffffffffffffffffffffffffffffffffffffffff160217905550600a80620000d691906200022a565b60ff164243604051602001620000ee9291906200029f565b6040516020818303038152906040528051906020012060001c620001139190620002fe565b600160006101000a81548160ff021916908360ff1602179055506001600281905550505062000336565b600080fd5b600073ffffffffffffffffffffffffffffffffffffffff82169050919050565b60006200016f8262000142565b9050919050565b620001818162000162565b81146200018d57600080fd5b50565b600081519050620001a18162000176565b92915050565b60008060408385031215620001c157620001c06200013d565b5b6000620001d18582860162000190565b9250506020620001e48582860162000190565b9150509250929050565b600060ff82169050919050565b7f4e487b7100000000000000000000000000000000000000000000000000000000600052601160045260246000fd5b60006200023782620001ee565b91506200024483620001ee565b92508282026200025481620001ee565b9150808214620002695762000268620001fb565b5b5092915050565b6000819050919050565b6000819050919050565b62000299620002938262000270565b6200027a565b82525050565b6000620002ad828562000284565b602082019150620002bf828462000284565b6020820191508190509392505050565b7f4e487b7100000000000000000000000000000000000000000000000000000000600052601260045260246000fd5b60006200030b8262000270565b9150620003188362000270565b9250826200032b576200032a620002cf565b5b828206905092915050565b611dfc80620003466000396000f3fe608060405234801561001057600080fd5b50600436106100f55760003560e01c80637fc4eda811610097578063b7d0628b11610066578063b7d0628b14610278578063c3dfdae614610297578063dfbf53ae146102b5578063f71d96cb146102d3576100f5565b80637fc4eda8146101ee5780638da5cb5b1461020c578063afcb20f11461022a578063b051e5c11461025a576100f5565b80634ae73cec116100d35780634ae73cec146101665780634ee70e231461018457806370e87aaf146101b4578063719ce73e146101d0576100f5565b806309c95e10146100fa578063146ca5311461012a57806323de787f14610148575b600080fd5b610114600480360381019061010f9190611453565b610303565b604051610121919061149b565b60405180910390f35b610132610323565b60405161013f91906114cf565b60405180910390f35b610150610329565b60405161015d9190611506565b60405180910390f35b61016e6103d0565b60405161017b9190611506565b60405180910390f35b61019e60048036038101906101999190611453565b6103e0565b6040516101ab919061149b565b60405180910390f35b6101ce60048036038101906101c9919061154d565b610400565b005b6101d86108c7565b6040516101e591906114cf565b60405180910390f35b6101f66108cd565b6040516102039190611506565b60405180910390f35b6102146108d2565b6040516102219190611589565b60405180910390f35b610244600480360381019061023f9190611453565b6108f8565b6040516102519190611506565b60405180910390f35b610262610918565b60405161026f91906114cf565b60405180910390f35b61028061091e565b60405161028e9291906115a4565b60405180910390f35b61029f61094f565b6040516102ac919061162c565b60405180910390f35b6102bd610975565b6040516102ca9190611589565b60405180910390f35b6102ed60048036038101906102e89190611673565b61099b565b6040516102fa9190611589565b60405180910390f35b600a6020528060005260406000206000915054906101000a900460ff1681565b60025481565b6000600660009054906101000a900473ffffffffffffffffffffffffffffffffffffffff1673ffffffffffffffffffffffffffffffffffffffff163373ffffffffffffffffffffffffffffffffffffffff16146103bb576040517f08c379a00000000000000000000000000000000000000000000000000000000081526004016103b290611723565b60405180910390fd5b600160009054906101000a900460ff16905090565b600a806103dd9190611772565b81565b60096020528060005260406000206000915054906101000a900460ff1681565b6104086109da565b600960003373ffffffffffffffffffffffffffffffffffffffff1673ffffffffffffffffffffffffffffffffffffffff16815260200190815260200160002060009054906101000a900460ff1615610495576040517f08c379a000000000000000000000000000000000000000000000000000000000815260040161048c90611821565b60405180910390fd5b80600a806104a39190611772565b60ff168160ff16106104ea576040517f08c379a00000000000000000000000000000000000000000000000000000000081526004016104e19061188d565b60405180910390fd5b610540600860003373ffffffffffffffffffffffffffffffffffffffff1673ffffffffffffffffffffffffffffffffffffffff16815260200190815260200160002060009054906101000a900460ff1682610a20565b61057f576040517f08c379a0000000000000000000000000000000000000000000000000000000008152600401610576906118f9565b60405180910390fd5b600560009054906101000a900473ffffffffffffffffffffffffffffffffffffffff1673ffffffffffffffffffffffffffffffffffffffff166323b872dd33306004546040518463ffffffff1660e01b81526004016105e093929190611919565b6020604051808303816000875af11580156105ff573d6000803e3d6000fd5b505050506040513d601f19601f82011682018060405250810190610623919061197c565b610662576040517f08c379a0000000000000000000000000000000000000000000000000000000008152600401610659906119f5565b60405180910390fd5b600a60003373ffffffffffffffffffffffffffffffffffffffff1673ffffffffffffffffffffffffffffffffffffffff16815260200190815260200160002060009054906101000a900460ff1661076f57600b339080600181540180825580915050600190039060005260206000200160009091909190916101000a81548173ffffffffffffffffffffffffffffffffffffffff021916908373ffffffffffffffffffffffffffffffffffffffff1602179055506001600a60003373ffffffffffffffffffffffffffffffffffffffff1673ffffffffffffffffffffffffffffffffffffffff16815260200190815260200160002060006101000a81548160ff0219169083151502179055505b81600860003373ffffffffffffffffffffffffffffffffffffffff1673ffffffffffffffffffffffffffffffffffffffff16815260200190815260200160002060006101000a81548160ff021916908360ff160217905550600454600360008282546107db9190611a15565b925050819055506001600960003373ffffffffffffffffffffffffffffffffffffffff1673ffffffffffffffffffffffffffffffffffffffff16815260200190815260200160002060006101000a81548160ff0219169083151502179055503373ffffffffffffffffffffffffffffffffffffffff167f5ffa67c93d7e64743006b977108f5a2dd20320035a6ebcb27a2498bae6e83227836040516108809190611506565b60405180910390a2600160009054906101000a900460ff1660ff168260ff16036108b1576108ac610b13565b6108bb565b6108ba82610e47565b5b506108c4610f4e565b50565b60035481565b600a81565b600660009054906101000a900473ffffffffffffffffffffffffffffffffffffffff1681565b60086020528060005260406000206000915054906101000a900460ff1681565b60045481565b600080600760009054906101000a900473ffffffffffffffffffffffffffffffffffffffff16600354915091509091565b600560009054906101000a900473ffffffffffffffffffffffffffffffffffffffff1681565b600760009054906101000a900473ffffffffffffffffffffffffffffffffffffffff1681565b600b81815481106109ab57600080fd5b906000526020600020016000915054906101000a900473ffffffffffffffffffffffffffffffffffffffff1681565b600260005403610a16576040517f3ee5aeb500000000000000000000000000000000000000000000000000000000815260040160405180910390fd5b6002600081905550565b6000600a60ff168360ff1610158015610a4a57508160ff16600a84610a459190611a49565b60ff16145b80610a8f5750600a80600a610a5f9190611772565b610a699190611a49565b60ff168360ff16108015610a8e57508160ff16600a84610a899190611a7e565b60ff16145b5b80610ac757506000600a84610aa49190611ae2565b60ff1614158015610ac657508160ff16600184610ac19190611a49565b60ff16145b5b80610b0b57506000600a600185610ade9190611a7e565b610ae89190611ae2565b60ff1614158015610b0a57508160ff16600184610b059190611a7e565b60ff16145b5b905092915050565b610b1b6109da565b33600760006101000a81548173ffffffffffffffffffffffffffffffffffffffff021916908373ffffffffffffffffffffffffffffffffffffffff16021790555060006064605a600354610b6f9190611b13565b610b799190611b55565b9050600060646002600354610b8e9190611b13565b610b989190611b55565b9050600060646008600354610bad9190611b13565b610bb79190611b55565b905080600381905550600560009054906101000a900473ffffffffffffffffffffffffffffffffffffffff1673ffffffffffffffffffffffffffffffffffffffff1663a9059cbb600760009054906101000a900473ffffffffffffffffffffffffffffffffffffffff16856040518363ffffffff1660e01b8152600401610c3f9291906115a4565b6020604051808303816000875af1158015610c5e573d6000803e3d6000fd5b505050506040513d601f19601f82011682018060405250810190610c82919061197c565b610cc1576040517f08c379a0000000000000000000000000000000000000000000000000000000008152600401610cb890611bd2565b60405180910390fd5b600560009054906101000a900473ffffffffffffffffffffffffffffffffffffffff1673ffffffffffffffffffffffffffffffffffffffff1663a9059cbb600660009054906101000a900473ffffffffffffffffffffffffffffffffffffffff16846040518363ffffffff1660e01b8152600401610d409291906115a4565b6020604051808303816000875af1158015610d5f573d6000803e3d6000fd5b505050506040513d601f19601f82011682018060405250810190610d83919061197c565b610dc2576040517f08c379a0000000000000000000000000000000000000000000000000000000008152600401610db990611c3e565b60405180910390fd5b600760009054906101000a900473ffffffffffffffffffffffffffffffffffffffff1673ffffffffffffffffffffffffffffffffffffffff167fdae072d96ce4f8bfc6557d4e8c29e0d1875b50c4efe52b340ab49669ec42ebe684604051610e2a91906114cf565b60405180910390a2610e3a610f58565b505050610e45610f4e565b565b6000600582610e569190611ae2565b60ff1603610e9557610e76600160009054906101000a900460ff1661108c565b600160006101000a81548160ff021916908360ff160217905550610f05565b610e9e816110f2565b15610f0457600a80610eb09190611772565b60ff164244604051602001610ec6929190611c7f565b6040516020818303038152906040528051906020012060001c610ee99190611cab565b600160006101000a81548160ff021916908360ff1602179055505b5b7fe9dc8bd2740ef1bcdb73ec06fcd30b996103682d642fed6ea2c46da615262238600160009054906101000a900460ff16604051610f439190611506565b60405180910390a150565b6001600081905550565b60026000815480929190610f6b90611cdc565b9190505550600a80610f7d9190611772565b60ff164243604051602001610f93929190611c7f565b6040516020818303038152906040528051906020012060001c610fb69190611cab565b600160006101000a81548160ff021916908360ff16021790555060005b600b8054905081101561108957600060096000600b8481548110610ffa57610ff9611d24565b5b9060005260206000200160009054906101000a900473ffffffffffffffffffffffffffffffffffffffff1673ffffffffffffffffffffffffffffffffffffffff1673ffffffffffffffffffffffffffffffffffffffff16815260200190815260200160002060006101000a81548160ff021916908315150217905550808061108190611cdc565b915050610fd3565b50565b60008061109883611166565b9050808151426040516020016110ae9190611d53565b6040516020818303038152906040528051906020012060001c6110d19190611cab565b815181106110e2576110e1611d24565b5b6020026020010151915050919050565b600060028260ff1610156111095760009050611161565b6000600290505b8260ff1681826111209190611772565b60ff161161115b57600081846111369190611ae2565b60ff1603611148576000915050611161565b808061115390611d6e565b915050611110565b50600190505b919050565b60606000600a60ff168360ff161061118757808061118390611d6e565b9150505b600a80600a6111969190611772565b6111a09190611a49565b60ff168360ff1610156111bc5780806111b890611d6e565b9150505b6000600a846111cb9190611ae2565b60ff16146111e25780806111de90611d6e565b9150505b6000600a6001856111f39190611a7e565b6111fd9190611ae2565b60ff161461121457808061121090611d6e565b9150505b60008160ff1667ffffffffffffffff81111561123357611232611d97565b5b6040519080825280602002602001820160405280156112615781602001602082028036833780820191505090505b50905060009150600a60ff168460ff16106112ba57600a846112839190611a49565b81838061128f90611d6e565b945060ff16815181106112a5576112a4611d24565b5b602002602001019060ff16908160ff16815250505b600a80600a6112c99190611772565b6112d39190611a49565b60ff168460ff16101561132457600a846112ed9190611a7e565b8183806112f990611d6e565b945060ff168151811061130f5761130e611d24565b5b602002602001019060ff16908160ff16815250505b6000600a856113339190611ae2565b60ff161461137f576001846113489190611a49565b81838061135490611d6e565b945060ff168151811061136a57611369611d24565b5b602002602001019060ff16908160ff16815250505b6000600a6001866113909190611a7e565b61139a9190611ae2565b60ff16146113e6576001846113af9190611a7e565b8183806113bb90611d6e565b945060ff16815181106113d1576113d0611d24565b5b602002602001019060ff16908160ff16815250505b8092505050919050565b600080fd5b600073ffffffffffffffffffffffffffffffffffffffff82169050919050565b6000611420826113f5565b9050919050565b61143081611415565b811461143b57600080fd5b50565b60008135905061144d81611427565b92915050565b600060208284031215611469576114686113f0565b5b60006114778482850161143e565b91505092915050565b60008115159050919050565b61149581611480565b82525050565b60006020820190506114b0600083018461148c565b92915050565b6000819050919050565b6114c9816114b6565b82525050565b60006020820190506114e460008301846114c0565b92915050565b600060ff82169050919050565b611500816114ea565b82525050565b600060208201905061151b60008301846114f7565b92915050565b61152a816114ea565b811461153557600080fd5b50565b60008135905061154781611521565b92915050565b600060208284031215611563576115626113f0565b5b600061157184828501611538565b91505092915050565b61158381611415565b82525050565b600060208201905061159e600083018461157a565b92915050565b60006040820190506115b9600083018561157a565b6115c660208301846114c0565b9392505050565b6000819050919050565b60006115f26115ed6115e8846113f5565b6115cd565b6113f5565b9050919050565b6000611604826115d7565b9050919050565b6000611616826115f9565b9050919050565b6116268161160b565b82525050565b6000602082019050611641600083018461161d565b92915050565b611650816114b6565b811461165b57600080fd5b50565b60008135905061166d81611647565b92915050565b600060208284031215611689576116886113f0565b5b60006116978482850161165e565b91505092915050565b600082825260208201905092915050565b7f4f6e6c7920746865206f776e65722063616e2063616c6c20746869732066756e60008201527f6374696f6e2e0000000000000000000000000000000000000000000000000000602082015250565b600061170d6026836116a0565b9150611718826116b1565b604082019050919050565b6000602082019050818103600083015261173c81611700565b9050919050565b7f4e487b7100000000000000000000000000000000000000000000000000000000600052601160045260246000fd5b600061177d826114ea565b9150611788836114ea565b9250828202611796816114ea565b91508082146117a8576117a7611743565b5b5092915050565b7f506c617965722068617320616c7265616479206d6f766564207468697320726f60008201527f756e642e00000000000000000000000000000000000000000000000000000000602082015250565b600061180b6024836116a0565b9150611816826117af565b604082019050919050565b6000602082019050818103600083015261183a816117fe565b9050919050565b7f496e76616c6964206d6f76652e00000000000000000000000000000000000000600082015250565b6000611877600d836116a0565b915061188282611841565b602082019050919050565b600060208201905081810360008301526118a68161186a565b9050919050565b7f4d6f7665206d7573742062652061646a6163656e742e00000000000000000000600082015250565b60006118e36016836116a0565b91506118ee826118ad565b602082019050919050565b60006020820190508181036000830152611912816118d6565b9050919050565b600060608201905061192e600083018661157a565b61193b602083018561157a565b61194860408301846114c0565b949350505050565b61195981611480565b811461196457600080fd5b50565b60008151905061197681611950565b92915050565b600060208284031215611992576119916113f0565b5b60006119a084828501611967565b91505092915050565b7f546f6b656e207472616e73666572206661696c65640000000000000000000000600082015250565b60006119df6015836116a0565b91506119ea826119a9565b602082019050919050565b60006020820190508181036000830152611a0e816119d2565b9050919050565b6000611a20826114b6565b9150611a2b836114b6565b9250828201905080821115611a4357611a42611743565b5b92915050565b6000611a54826114ea565b9150611a5f836114ea565b9250828203905060ff811115611a7857611a77611743565b5b92915050565b6000611a89826114ea565b9150611a94836114ea565b9250828201905060ff811115611aad57611aac611743565b5b92915050565b7f4e487b7100000000000000000000000000000000000000000000000000000000600052601260045260246000fd5b6000611aed826114ea565b9150611af8836114ea565b925082611b0857611b07611ab3565b5b828206905092915050565b6000611b1e826114b6565b9150611b29836114b6565b9250828202611b37816114b6565b91508282048414831517611b4e57611b4d611743565b5b5092915050565b6000611b60826114b6565b9150611b6b836114b6565b925082611b7b57611b7a611ab3565b5b828204905092915050565b7f546f6b656e207472616e7366657220746f2077696e6e6572206661696c656400600082015250565b6000611bbc601f836116a0565b9150611bc782611b86565b602082019050919050565b60006020820190508181036000830152611beb81611baf565b9050919050565b7f546f6b656e207472616e7366657220746f206f776e6572206661696c65640000600082015250565b6000611c28601e836116a0565b9150611c3382611bf2565b602082019050919050565b60006020820190508181036000830152611c5781611c1b565b9050919050565b6000819050919050565b611c79611c74826114b6565b611c5e565b82525050565b6000611c8b8285611c68565b602082019150611c9b8284611c68565b6020820191508190509392505050565b6000611cb6826114b6565b9150611cc1836114b6565b925082611cd157611cd0611ab3565b5b828206905092915050565b6000611ce7826114b6565b91507fffffffffffffffffffffffffffffffffffffffffffffffffffffffffffffffff8203611d1957611d18611743565b5b600182019050919050565b7f4e487b7100000000000000000000000000000000000000000000000000000000600052603260045260246000fd5b6000611d5f8284611c68565b60208201915081905092915050565b6000611d79826114ea565b915060ff8203611d8c57611d8b611743565b5b600182019050919050565b7f4e487b7100000000000000000000000000000000000000000000000000000000600052604160045260246000fdfea2646970667358221220a60cec7cf2fede34af3c4713de994361f8ab3be721a7e8d7a42c45f07dd24f1364736f6c63430008140033",
  "linkReferences": {},
  "deployedLinkReferences": {}
}