{
  "_format": "hh-sol-artifact-1",
  "contractName": "TreasureHunt",
  "sourceName": "contracts/TreasureHunt.sol",
  "abi": [
    {
      "inputs": [
        {
          "internalType": "address",
          "name": "_tokenAddress",
          "type": "address"
        },
        {
          "internalType": "address",
          "name": "_ownerAddress",
          "type": "address"
        }
      ],
      "stateMutability": "nonpayable",
      "type": "constructor"
    },
    {
      "inputs": [],
      "name": "ReentrancyGuardReentrantCall",
      "type": "error"
    },
    {
      "anonymous": false,
      "inputs": [
        {
          "indexed": true,
          "internalType": "address",
          "name": "winner",
          "type": "address"
        },
        {
          "indexed": false,
          "internalType": "uint256",
          "name": "prize",
          "type": "uint256"
        }
      ],
      "name": "GameWon",
      "type": "event"
    },
    {
      "anonymous": false,
      "inputs": [
        {
          "indexed": true,
          "internalType": "address",
          "name": "player",
          "type": "address"
        },
        {
          "indexed": false,
          "internalType": "uint8",
          "name": "position",
          "type": "uint8"
        }
      ],
      "name": "PlayerMoved",
      "type": "event"
    },
    {
      "anonymous": false,
      "inputs": [
        {
          "indexed": true,
          "internalType": "address",
          "name": "winner",
          "type": "address"
        },
        {
          "indexed": false,
          "internalType": "uint256",
          "name": "winnerShare",
          "type": "uint256"
        },
        {
          "indexed": false,
          "internalType": "uint256",
          "name": "ownerShare",
          "type": "uint256"
        },
        {
          "indexed": false,
          "internalType": "uint256",
          "name": "nextRoundShare",
          "type": "uint256"
        }
      ],
      "name": "RewardDistributed",
      "type": "event"
    },
    {
      "inputs": [],
      "name": "GRID_SIZE",
      "outputs": [
        {
          "internalType": "uint8",
          "name": "",
          "type": "uint8"
        }
      ],
      "stateMutability": "view",
      "type": "function"
    },
    {
      "inputs": [],
      "name": "TOTAL_CELLS",
      "outputs": [
        {
          "internalType": "uint8",
          "name": "",
          "type": "uint8"
        }
      ],
      "stateMutability": "view",
      "type": "function"
    },
    {
      "inputs": [
        {
          "internalType": "uint256",
          "name": "amount",
          "type": "uint256"
        }
      ],
      "name": "addTokensToPrizePool",
      "outputs": [],
      "stateMutability": "nonpayable",
      "type": "function"
    },
    {
      "inputs": [],
      "name": "gameToken",
      "outputs": [
        {
          "internalType": "contract IERC20",
          "name": "",
          "type": "address"
        }
      ],
      "stateMutability": "view",
      "type": "function"
    },
    {
      "inputs": [],
      "name": "getGameState",
      "outputs": [
        {
          "internalType": "address",
          "name": "",
          "type": "address"
        },
        {
          "internalType": "uint256",
          "name": "",
          "type": "uint256"
        }
      ],
      "stateMutability": "view",
      "type": "function"
    },
    {
      "inputs": [],
      "name": "getTreasurePosition",
      "outputs": [
        {
          "internalType": "uint8",
          "name": "",
          "type": "uint8"
        }
      ],
      "stateMutability": "view",
      "type": "function"
    },
    {
      "inputs": [
        {
          "internalType": "address",
          "name": "",
          "type": "address"
        }
      ],
      "name": "hasMoved",
      "outputs": [
        {
          "internalType": "bool",
          "name": "",
          "type": "bool"
        }
      ],
      "stateMutability": "view",
      "type": "function"
    },
    {
      "inputs": [
        {
          "internalType": "uint8",
          "name": "",
          "type": "uint8"
        }
      ],
      "name": "isOccupied",
      "outputs": [
        {
          "internalType": "bool",
          "name": "",
          "type": "bool"
        }
      ],
      "stateMutability": "view",
      "type": "function"
    },
    {
      "inputs": [
        {
          "internalType": "address",
          "name": "",
          "type": "address"
        }
      ],
      "name": "isPlayer",
      "outputs": [
        {
          "internalType": "bool",
          "name": "",
          "type": "bool"
        }
      ],
      "stateMutability": "view",
      "type": "function"
    },
    {
      "inputs": [
        {
          "internalType": "uint8",
          "name": "newPosition",
          "type": "uint8"
        }
      ],
      "name": "move",
      "outputs": [],
      "stateMutability": "nonpayable",
      "type": "function"
    },
    {
      "inputs": [],
      "name": "moveCost",
      "outputs": [
        {
          "internalType": "uint256",
          "name": "",
          "type": "uint256"
        }
      ],
      "stateMutability": "view",
      "type": "function"
    },
    {
      "inputs": [],
      "name": "owner",
      "outputs": [
        {
          "internalType": "address",
          "name": "",
          "type": "address"
        }
      ],
      "stateMutability": "view",
      "type": "function"
    },
    {
      "inputs": [
        {
          "internalType": "address",
          "name": "",
          "type": "address"
        }
      ],
      "name": "playerPositions",
      "outputs": [
        {
          "internalType": "uint8",
          "name": "",
          "type": "uint8"
        }
      ],
      "stateMutability": "view",
      "type": "function"
    },
    {
      "inputs": [
        {
          "internalType": "uint256",
          "name": "",
          "type": "uint256"
        }
      ],
      "name": "players",
      "outputs": [
        {
          "internalType": "address",
          "name": "",
          "type": "address"
        }
      ],
      "stateMutability": "view",
      "type": "function"
    },
    {
      "inputs": [],
      "name": "prizePool",
      "outputs": [
        {
          "internalType": "uint256",
          "name": "",
          "type": "uint256"
        }
      ],
      "stateMutability": "view",
      "type": "function"
    },
    {
      "inputs": [],
      "name": "round",
      "outputs": [
        {
          "internalType": "uint256",
          "name": "",
          "type": "uint256"
        }
      ],
      "stateMutability": "view",
      "type": "function"
    },
    {
      "inputs": [],
      "name": "tokenDecimals",
      "outputs": [
        {
          "internalType": "uint8",
          "name": "",
          "type": "uint8"
        }
      ],
      "stateMutability": "view",
      "type": "function"
    },
    {
      "inputs": [],
      "name": "winner",
      "outputs": [
        {
          "internalType": "address",
          "name": "",
          "type": "address"
        }
      ],
      "stateMutability": "view",
      "type": "function"
    },
    {
      "inputs": [
        {
          "internalType": "uint256",
          "name": "amount",
          "type": "uint256"
        }
      ],
      "name": "withdrawTokensFromPrizePool",
      "outputs": [],
      "stateMutability": "nonpayable",
      "type": "function"
    }
  ],
  "bytecode": "0x60806040523480156200001157600080fd5b50604051620030a7380380620030a7833981810160405281019062000037919062000266565b600160008190555081600560016101000a81548173ffffffffffffffffffffffffffffffffffffffff021916908373ffffffffffffffffffffffffffffffffffffffff16021790555080600660006101000a81548173ffffffffffffffffffffffffffffffffffffffff021916908373ffffffffffffffffffffffffffffffffffffffff1602179055508173ffffffffffffffffffffffffffffffffffffffff1663313ce5676040518163ffffffff1660e01b8152600401602060405180830381865afa1580156200010d573d6000803e3d6000fd5b505050506040513d601f19601f82011682018060405250810190620001339190620002eb565b600560006101000a81548160ff021916908360ff160217905550600560009054906101000a900460ff16600a6200016b9190620004aa565b6107d06200017a9190620004fb565b600481905550600a806200018f919062000546565b60ff164243443330604051602001620001ad95949392919062000601565b6040516020818303038152906040528051906020012060001c620001d2919062000699565b600160006101000a81548160ff021916908360ff16021790555060016002819055505050620006d1565b600080fd5b600073ffffffffffffffffffffffffffffffffffffffff82169050919050565b60006200022e8262000201565b9050919050565b620002408162000221565b81146200024c57600080fd5b50565b600081519050620002608162000235565b92915050565b6000806040838503121562000280576200027f620001fc565b5b600062000290858286016200024f565b9250506020620002a3858286016200024f565b9150509250929050565b600060ff82169050919050565b620002c581620002ad565b8114620002d157600080fd5b50565b600081519050620002e581620002ba565b92915050565b600060208284031215620003045762000303620001fc565b5b60006200031484828501620002d4565b91505092915050565b7f4e487b7100000000000000000000000000000000000000000000000000000000600052601160045260246000fd5b60008160011c9050919050565b6000808291508390505b6001851115620003ab578086048111156200038357620003826200031d565b5b6001851615620003935780820291505b8081029050620003a3856200034c565b945062000363565b94509492505050565b600082620003c6576001905062000499565b81620003d6576000905062000499565b8160018114620003ef5760028114620003fa5762000430565b600191505062000499565b60ff8411156200040f576200040e6200031d565b5b8360020a9150848211156200042957620004286200031d565b5b5062000499565b5060208310610133831016604e8410600b84101617156200046a5782820a9050838111156200046457620004636200031d565b5b62000499565b62000479848484600162000359565b925090508184048111156200049357620004926200031d565b5b81810290505b9392505050565b6000819050919050565b6000620004b782620004a0565b9150620004c483620002ad565b9250620004f37fffffffffffffffffffffffffffffffffffffffffffffffffffffffffffffffff8484620003b4565b905092915050565b60006200050882620004a0565b91506200051583620004a0565b92508282026200052581620004a0565b915082820484148315176200053f576200053e6200031d565b5b5092915050565b60006200055382620002ad565b91506200056083620002ad565b92508282026200057081620002ad565b91508082146200058557620005846200031d565b5b5092915050565b6000819050919050565b620005ab620005a582620004a0565b6200058c565b82525050565b60008160601b9050919050565b6000620005cb82620005b1565b9050919050565b6000620005df82620005be565b9050919050565b620005fb620005f58262000221565b620005d2565b82525050565b60006200060f828862000596565b60208201915062000621828762000596565b60208201915062000633828662000596565b602082019150620006458285620005e6565b601482019150620006578284620005e6565b6014820191508190509695505050505050565b7f4e487b7100000000000000000000000000000000000000000000000000000000600052601260045260246000fd5b6000620006a682620004a0565b9150620006b383620004a0565b925082620006c657620006c56200066a565b5b828206905092915050565b6129c680620006e16000396000f3fe608060405234801561001057600080fd5b50600436106101215760003560e01c80637fc4eda8116100ad578063b7d0628b11610071578063b7d0628b1461030e578063c30eac831461032d578063c3dfdae614610349578063dfbf53ae14610367578063f71d96cb1461038557610121565b80637fc4eda8146102545780638da5cb5b1461027257806396c4703d14610290578063afcb20f1146102c0578063b051e5c1146102f057610121565b80633b97e856116100f45780633b97e856146101ae5780634ae73cec146101cc5780634ee70e23146101ea57806370e87aaf1461021a578063719ce73e1461023657610121565b806309c95e1014610126578063146ca5311461015657806323de787f14610174578063364a08de14610192575b600080fd5b610140600480360381019061013b9190611cfa565b6103b5565b60405161014d9190611d42565b60405180910390f35b61015e6103d5565b60405161016b9190611d76565b60405180910390f35b61017c6103db565b6040516101899190611dad565b60405180910390f35b6101ac60048036038101906101a79190611df4565b6103f2565b005b6101b66105f4565b6040516101c39190611dad565b60405180910390f35b6101d4610607565b6040516101e19190611dad565b60405180910390f35b61020460048036038101906101ff9190611cfa565b610617565b6040516102119190611d42565b60405180910390f35b610234600480360381019061022f9190611e4d565b610637565b005b61023e610af2565b60405161024b9190611d76565b60405180910390f35b61025c610af8565b6040516102699190611dad565b60405180910390f35b61027a610afd565b6040516102879190611e89565b60405180910390f35b6102aa60048036038101906102a59190611e4d565b610b23565b6040516102b79190611d42565b60405180910390f35b6102da60048036038101906102d59190611cfa565b610b43565b6040516102e79190611dad565b60405180910390f35b6102f8610b63565b6040516103059190611d76565b60405180910390f35b610316610b69565b604051610324929190611ea4565b60405180910390f35b61034760048036038101906103429190611df4565b610b9a565b005b610351610d37565b60405161035e9190611f2c565b60405180910390f35b61036f610d5d565b60405161037c9190611e89565b60405180910390f35b61039f600480360381019061039a9190611df4565b610d83565b6040516103ac9190611e89565b60405180910390f35b600a6020528060005260406000206000915054906101000a900460ff1681565b60025481565b6000600160009054906101000a900460ff16905090565b600660009054906101000a900473ffffffffffffffffffffffffffffffffffffffff1673ffffffffffffffffffffffffffffffffffffffff163373ffffffffffffffffffffffffffffffffffffffff1614610482576040517f08c379a000000000000000000000000000000000000000000000000000000000815260040161047990611fca565b60405180910390fd5b61048a610dc2565b6003548111156104cf576040517f08c379a00000000000000000000000000000000000000000000000000000000081526004016104c69061205c565b60405180910390fd5b80600360008282546104e191906120ab565b92505081905550600560019054906101000a900473ffffffffffffffffffffffffffffffffffffffff1673ffffffffffffffffffffffffffffffffffffffff1663a9059cbb600660009054906101000a900473ffffffffffffffffffffffffffffffffffffffff16836040518363ffffffff1660e01b8152600401610567929190611ea4565b6020604051808303816000875af1158015610586573d6000803e3d6000fd5b505050506040513d601f19601f820116820180604052508101906105aa919061210b565b6105e9576040517f08c379a00000000000000000000000000000000000000000000000000000000081526004016105e090612184565b60405180910390fd5b6105f1610e08565b50565b600560009054906101000a900460ff1681565b600a8061061491906121a4565b81565b60096020528060005260406000206000915054906101000a900460ff1681565b600960003373ffffffffffffffffffffffffffffffffffffffff1673ffffffffffffffffffffffffffffffffffffffff16815260200190815260200160002060009054906101000a900460ff16156106c4576040517f08c379a00000000000000000000000000000000000000000000000000000000081526004016106bb90612253565b60405180910390fd5b80600a806106d291906121a4565b60ff168160ff1610610719576040517f08c379a0000000000000000000000000000000000000000000000000000000008152600401610710906122bf565b60405180910390fd5b600b60008360ff1660ff16815260200190815260200160002060009054906101000a900460ff1615610780576040517f08c379a00000000000000000000000000000000000000000000000000000000081526004016107779061232b565b60405180910390fd5b600560019054906101000a900473ffffffffffffffffffffffffffffffffffffffff1673ffffffffffffffffffffffffffffffffffffffff166323b872dd33306004546040518463ffffffff1660e01b81526004016107e19392919061234b565b6020604051808303816000875af1158015610800573d6000803e3d6000fd5b505050506040513d601f19601f82011682018060405250810190610824919061210b565b610863576040517f08c379a000000000000000000000000000000000000000000000000000000000815260040161085a90612184565b60405180910390fd5b600a60003373ffffffffffffffffffffffffffffffffffffffff1673ffffffffffffffffffffffffffffffffffffffff16815260200190815260200160002060009054906101000a900460ff1661097057600c339080600181540180825580915050600190039060005260206000200160009091909190916101000a81548173ffffffffffffffffffffffffffffffffffffffff021916908373ffffffffffffffffffffffffffffffffffffffff1602179055506001600a60003373ffffffffffffffffffffffffffffffffffffffff1673ffffffffffffffffffffffffffffffffffffffff16815260200190815260200160002060006101000a81548160ff0219169083151502179055505b81600860003373ffffffffffffffffffffffffffffffffffffffff1673ffffffffffffffffffffffffffffffffffffffff16815260200190815260200160002060006101000a81548160ff021916908360ff1602179055506001600b60008460ff1660ff16815260200190815260200160002060006101000a81548160ff02191690831515021790555060045460036000828254610a0e9190612382565b925050819055506001600960003373ffffffffffffffffffffffffffffffffffffffff1673ffffffffffffffffffffffffffffffffffffffff16815260200190815260200160002060006101000a81548160ff0219169083151502179055503373ffffffffffffffffffffffffffffffffffffffff167f5ffa67c93d7e64743006b977108f5a2dd20320035a6ebcb27a2498bae6e8322783604051610ab39190611dad565b60405180910390a2600160009054906101000a900460ff1660ff168260ff1603610ae457610adf610e12565b610aee565b610aed826111ba565b5b5050565b60035481565b600a81565b600660009054906101000a900473ffffffffffffffffffffffffffffffffffffffff1681565b600b6020528060005260406000206000915054906101000a900460ff1681565b60086020528060005260406000206000915054906101000a900460ff1681565b60045481565b600080600760009054906101000a900473ffffffffffffffffffffffffffffffffffffffff16600354915091509091565b600660009054906101000a900473ffffffffffffffffffffffffffffffffffffffff1673ffffffffffffffffffffffffffffffffffffffff163373ffffffffffffffffffffffffffffffffffffffff1614610c2a576040517f08c379a0000000000000000000000000000000000000000000000000000000008152600401610c2190611fca565b60405180910390fd5b610c32610dc2565b600560019054906101000a900473ffffffffffffffffffffffffffffffffffffffff1673ffffffffffffffffffffffffffffffffffffffff166323b872dd3330846040518463ffffffff1660e01b8152600401610c919392919061234b565b6020604051808303816000875af1158015610cb0573d6000803e3d6000fd5b505050506040513d601f19601f82011682018060405250810190610cd4919061210b565b610d13576040517f08c379a0000000000000000000000000000000000000000000000000000000008152600401610d0a90612184565b60405180910390fd5b8060036000828254610d259190612382565b92505081905550610d34610e08565b50565b600560019054906101000a900473ffffffffffffffffffffffffffffffffffffffff1681565b600760009054906101000a900473ffffffffffffffffffffffffffffffffffffffff1681565b600c8181548110610d9357600080fd5b906000526020600020016000915054906101000a900473ffffffffffffffffffffffffffffffffffffffff1681565b600260005403610dfe576040517f3ee5aeb500000000000000000000000000000000000000000000000000000000815260040160405180910390fd5b6002600081905550565b6001600081905550565b610e1a610dc2565b33600760006101000a81548173ffffffffffffffffffffffffffffffffffffffff021916908373ffffffffffffffffffffffffffffffffffffffff16021790555060006064605a600354610e6e91906123b6565b610e789190612427565b9050600060646002600354610e8d91906123b6565b610e979190612427565b9050600060646008600354610eac91906123b6565b610eb69190612427565b905080600381905550600560019054906101000a900473ffffffffffffffffffffffffffffffffffffffff1673ffffffffffffffffffffffffffffffffffffffff1663a9059cbb600760009054906101000a900473ffffffffffffffffffffffffffffffffffffffff16856040518363ffffffff1660e01b8152600401610f3e929190611ea4565b6020604051808303816000875af1158015610f5d573d6000803e3d6000fd5b505050506040513d601f19601f82011682018060405250810190610f81919061210b565b610fc0576040517f08c379a0000000000000000000000000000000000000000000000000000000008152600401610fb7906124a4565b60405180910390fd5b600560019054906101000a900473ffffffffffffffffffffffffffffffffffffffff1673ffffffffffffffffffffffffffffffffffffffff1663a9059cbb600660009054906101000a900473ffffffffffffffffffffffffffffffffffffffff16846040518363ffffffff1660e01b815260040161103f929190611ea4565b6020604051808303816000875af115801561105e573d6000803e3d6000fd5b505050506040513d601f19601f82011682018060405250810190611082919061210b565b6110c1576040517f08c379a00000000000000000000000000000000000000000000000000000000081526004016110b890612510565b60405180910390fd5b600760009054906101000a900473ffffffffffffffffffffffffffffffffffffffff1673ffffffffffffffffffffffffffffffffffffffff167fdae072d96ce4f8bfc6557d4e8c29e0d1875b50c4efe52b340ab49669ec42ebe6846040516111299190611d76565b60405180910390a2600760009054906101000a900473ffffffffffffffffffffffffffffffffffffffff1673ffffffffffffffffffffffffffffffffffffffff167ff0f44087179a926066b42ce5c1720884709cd0766b995b4595a33c8e4fd3a2b284848460405161119d93929190612530565b60405180910390a26111ad61123d565b5050506111b8610e08565b565b60006005826111c99190612567565b60ff1603611208576111e9600160009054906101000a900460ff1661155b565b600160006101000a81548160ff021916908360ff16021790555061123a565b61121181611621565b156112395761121e611695565b600160006101000a81548160ff021916908360ff1602179055505b5b50565b6002600081548092919061125090612598565b9190505550600a8061126291906121a4565b60ff16424344333060025460405160200161128296959493929190612649565b6040516020818303038152906040528051906020012060001c6112a591906126b9565b600160006101000a81548160ff021916908360ff16021790555060005b600c8054905081101561143457600060096000600c84815481106112e9576112e86126ea565b5b9060005260206000200160009054906101000a900473ffffffffffffffffffffffffffffffffffffffff1673ffffffffffffffffffffffffffffffffffffffff1673ffffffffffffffffffffffffffffffffffffffff16815260200190815260200160002060006101000a81548160ff0219169083151502179055506000600b600060086000600c8681548110611383576113826126ea565b5b9060005260206000200160009054906101000a900473ffffffffffffffffffffffffffffffffffffffff1673ffffffffffffffffffffffffffffffffffffffff1673ffffffffffffffffffffffffffffffffffffffff16815260200190815260200160002060009054906101000a900460ff1660ff1660ff16815260200190815260200160002060006101000a81548160ff021916908315150217905550808061142c90612598565b9150506112c2565b5060005b600a8061144591906121a4565b60ff168160ff161015611497576000600b60008360ff1660ff16815260200190815260200160002060006101000a81548160ff021916908315150217905550808061148f90612719565b915050611438565b5060005b600c805490508160ff1610156115585760ff60086000600c8460ff16815481106114c8576114c76126ea565b5b9060005260206000200160009054906101000a900473ffffffffffffffffffffffffffffffffffffffff1673ffffffffffffffffffffffffffffffffffffffff1673ffffffffffffffffffffffffffffffffffffffff16815260200190815260200160002060006101000a81548160ff021916908360ff160217905550808061155090612719565b91505061149b565b50565b60008061156783611834565b9050600061157482611abe565b905060008151116115ba576040517f08c379a00000000000000000000000000000000000000000000000000000000081526004016115b1906127b4565b60405180910390fd5b80815142434433306002548b6040516020016115dc979695949392919061280a565b6040516020818303038152906040528051906020012060001c6115ff91906126b9565b815181106116105761160f6126ea565b5b602002602001015192505050919050565b600060028260ff1610156116385760009050611690565b6000600290505b8260ff16818261164f91906121a4565b60ff161161168a57600081846116659190612567565b60ff1603611677576000915050611690565b808061168290612719565b91505061163f565b50600190505b919050565b600080600a806116a591906121a4565b60ff1667ffffffffffffffff8111156116c1576116c061288b565b5b6040519080825280602002602001820160405280156116ef5781602001602082028036833780820191505090505b5090506000805b600a8061170391906121a4565b60ff168160ff16101561178657600b60008260ff1660ff16815260200190815260200160002060009054906101000a900460ff16611773578083838061174890612719565b945060ff168151811061175e5761175d6126ea565b5b602002602001019060ff16908160ff16815250505b808061177e90612719565b9150506116f6565b5060008160ff16116117cd576040517f08c379a00000000000000000000000000000000000000000000000000000000081526004016117c490612906565b60405180910390fd5b818160ff164243443330600254886040516020016117f1979695949392919061280a565b6040516020818303038152906040528051906020012060001c61181491906126b9565b81518110611825576118246126ea565b5b60200260200101519250505090565b60606000600a60ff168360ff161061185557808061185190612719565b9150505b600a80600a61186491906121a4565b61186e9190612926565b60ff168360ff16101561188a57808061188690612719565b9150505b6000600a846118999190612567565b60ff16146118b05780806118ac90612719565b9150505b6000600a6001856118c1919061295b565b6118cb9190612567565b60ff16146118e25780806118de90612719565b9150505b60008160ff1667ffffffffffffffff8111156119015761190061288b565b5b60405190808252806020026020018201604052801561192f5781602001602082028036833780820191505090505b50905060009150600a60ff168460ff161061198857600a846119519190612926565b81838061195d90612719565b945060ff1681518110611973576119726126ea565b5b602002602001019060ff16908160ff16815250505b600a80600a61199791906121a4565b6119a19190612926565b60ff168460ff1610156119f257600a846119bb919061295b565b8183806119c790612719565b945060ff16815181106119dd576119dc6126ea565b5b602002602001019060ff16908160ff16815250505b6000600a85611a019190612567565b60ff1614611a4d57600184611a169190612926565b818380611a2290612719565b945060ff1681518110611a3857611a376126ea565b5b602002602001019060ff16908160ff16815250505b6000600a600186611a5e919061295b565b611a689190612567565b60ff1614611ab457600184611a7d919061295b565b818380611a8990612719565b945060ff1681518110611a9f57611a9e6126ea565b5b602002602001019060ff16908160ff16815250505b8092505050919050565b60606000825167ffffffffffffffff811115611add57611adc61288b565b5b604051908082528060200260200182016040528015611b0b5781602001602082028036833780820191505090505b5090506000805b84518160ff161015611bce57600b6000868360ff1681518110611b3857611b376126ea565b5b602002602001015160ff1660ff16815260200190815260200160002060009054906101000a900460ff16611bbb57848160ff1681518110611b7c57611b7b6126ea565b5b6020026020010151838380611b9090612719565b945060ff1681518110611ba657611ba56126ea565b5b602002602001019060ff16908160ff16815250505b8080611bc690612719565b915050611b12565b5060008160ff1667ffffffffffffffff811115611bee57611bed61288b565b5b604051908082528060200260200182016040528015611c1c5781602001602082028036833780820191505090505b50905060005b8260ff168160ff161015611c8b57838160ff1681518110611c4657611c456126ea565b5b6020026020010151828260ff1681518110611c6457611c636126ea565b5b602002602001019060ff16908160ff16815250508080611c8390612719565b915050611c22565b50809350505050919050565b600080fd5b600073ffffffffffffffffffffffffffffffffffffffff82169050919050565b6000611cc782611c9c565b9050919050565b611cd781611cbc565b8114611ce257600080fd5b50565b600081359050611cf481611cce565b92915050565b600060208284031215611d1057611d0f611c97565b5b6000611d1e84828501611ce5565b91505092915050565b60008115159050919050565b611d3c81611d27565b82525050565b6000602082019050611d576000830184611d33565b92915050565b6000819050919050565b611d7081611d5d565b82525050565b6000602082019050611d8b6000830184611d67565b92915050565b600060ff82169050919050565b611da781611d91565b82525050565b6000602082019050611dc26000830184611d9e565b92915050565b611dd181611d5d565b8114611ddc57600080fd5b50565b600081359050611dee81611dc8565b92915050565b600060208284031215611e0a57611e09611c97565b5b6000611e1884828501611ddf565b91505092915050565b611e2a81611d91565b8114611e3557600080fd5b50565b600081359050611e4781611e21565b92915050565b600060208284031215611e6357611e62611c97565b5b6000611e7184828501611e38565b91505092915050565b611e8381611cbc565b82525050565b6000602082019050611e9e6000830184611e7a565b92915050565b6000604082019050611eb96000830185611e7a565b611ec66020830184611d67565b9392505050565b6000819050919050565b6000611ef2611eed611ee884611c9c565b611ecd565b611c9c565b9050919050565b6000611f0482611ed7565b9050919050565b6000611f1682611ef9565b9050919050565b611f2681611f0b565b82525050565b6000602082019050611f416000830184611f1d565b92915050565b600082825260208201905092915050565b7f4f6e6c7920746865206f776e65722063616e2063616c6c20746869732066756e60008201527f6374696f6e2e0000000000000000000000000000000000000000000000000000602082015250565b6000611fb4602683611f47565b9150611fbf82611f58565b604082019050919050565b60006020820190508181036000830152611fe381611fa7565b9050919050565b7f4e6f7420656e6f75676820746f6b656e7320696e20746865207072697a65207060008201527f6f6f6c0000000000000000000000000000000000000000000000000000000000602082015250565b6000612046602383611f47565b915061205182611fea565b604082019050919050565b6000602082019050818103600083015261207581612039565b9050919050565b7f4e487b7100000000000000000000000000000000000000000000000000000000600052601160045260246000fd5b60006120b682611d5d565b91506120c183611d5d565b92508282039050818111156120d9576120d861207c565b5b92915050565b6120e881611d27565b81146120f357600080fd5b50565b600081519050612105816120df565b92915050565b60006020828403121561212157612120611c97565b5b600061212f848285016120f6565b91505092915050565b7f546f6b656e207472616e73666572206661696c65640000000000000000000000600082015250565b600061216e601583611f47565b915061217982612138565b602082019050919050565b6000602082019050818103600083015261219d81612161565b9050919050565b60006121af82611d91565b91506121ba83611d91565b92508282026121c881611d91565b91508082146121da576121d961207c565b5b5092915050565b7f506c617965722068617320616c7265616479206d6f766564207468697320726f60008201527f756e642e00000000000000000000000000000000000000000000000000000000602082015250565b600061223d602483611f47565b9150612248826121e1565b604082019050919050565b6000602082019050818103600083015261226c81612230565b9050919050565b7f496e76616c6964206d6f76652e00000000000000000000000000000000000000600082015250565b60006122a9600d83611f47565b91506122b482612273565b602082019050919050565b600060208201905081810360008301526122d88161229c565b9050919050565b7f506f736974696f6e20616c7265616479206f636375706965642e000000000000600082015250565b6000612315601a83611f47565b9150612320826122df565b602082019050919050565b6000602082019050818103600083015261234481612308565b9050919050565b60006060820190506123606000830186611e7a565b61236d6020830185611e7a565b61237a6040830184611d67565b949350505050565b600061238d82611d5d565b915061239883611d5d565b92508282019050808211156123b0576123af61207c565b5b92915050565b60006123c182611d5d565b91506123cc83611d5d565b92508282026123da81611d5d565b915082820484148315176123f1576123f061207c565b5b5092915050565b7f4e487b7100000000000000000000000000000000000000000000000000000000600052601260045260246000fd5b600061243282611d5d565b915061243d83611d5d565b92508261244d5761244c6123f8565b5b828204905092915050565b7f546f6b656e207472616e7366657220746f2077696e6e6572206661696c656400600082015250565b600061248e601f83611f47565b915061249982612458565b602082019050919050565b600060208201905081810360008301526124bd81612481565b9050919050565b7f546f6b656e207472616e7366657220746f206f776e6572206661696c65640000600082015250565b60006124fa601e83611f47565b9150612505826124c4565b602082019050919050565b60006020820190508181036000830152612529816124ed565b9050919050565b60006060820190506125456000830186611d67565b6125526020830185611d67565b61255f6040830184611d67565b949350505050565b600061257282611d91565b915061257d83611d91565b92508261258d5761258c6123f8565b5b828206905092915050565b60006125a382611d5d565b91507fffffffffffffffffffffffffffffffffffffffffffffffffffffffffffffffff82036125d5576125d461207c565b5b600182019050919050565b6000819050919050565b6125fb6125f682611d5d565b6125e0565b82525050565b60008160601b9050919050565b600061261982612601565b9050919050565b600061262b8261260e565b9050919050565b61264361263e82611cbc565b612620565b82525050565b600061265582896125ea565b60208201915061266582886125ea565b60208201915061267582876125ea565b6020820191506126858286612632565b6014820191506126958285612632565b6014820191506126a582846125ea565b602082019150819050979650505050505050565b60006126c482611d5d565b91506126cf83611d5d565b9250826126df576126de6123f8565b5b828206905092915050565b7f4e487b7100000000000000000000000000000000000000000000000000000000600052603260045260246000fd5b600061272482611d91565b915060ff82036127375761273661207c565b5b600182019050919050565b7f4e6f20766163616e742061646a6163656e7420706f736974696f6e732061766160008201527f696c61626c652e00000000000000000000000000000000000000000000000000602082015250565b600061279e602783611f47565b91506127a982612742565b604082019050919050565b600060208201905081810360008301526127cd81612791565b9050919050565b60008160f81b9050919050565b60006127ec826127d4565b9050919050565b6128046127ff82611d91565b6127e1565b82525050565b6000612816828a6125ea565b60208201915061282682896125ea565b60208201915061283682886125ea565b6020820191506128468287612632565b6014820191506128568286612632565b60148201915061286682856125ea565b60208201915061287682846127f3565b60018201915081905098975050505050505050565b7f4e487b7100000000000000000000000000000000000000000000000000000000600052604160045260246000fd5b7f4e6f20766163616e7420706f736974696f6e7320617661696c61626c652e0000600082015250565b60006128f0601e83611f47565b91506128fb826128ba565b602082019050919050565b6000602082019050818103600083015261291f816128e3565b9050919050565b600061293182611d91565b915061293c83611d91565b9250828203905060ff8111156129555761295461207c565b5b92915050565b600061296682611d91565b915061297183611d91565b9250828201905060ff81111561298a5761298961207c565b5b9291505056fea26469706673582212203cddc4bb65230bded66f55a7216a32dd53aa3f652c7f86a86e509f38ba2790be64736f6c63430008140033",
  "linkReferences": {},
  "deployedLinkReferences": {}
}