{
  "_format": "hh-sol-artifact-1",
  "contractName": "DepositAndGetGameTokenContract",
  "sourceName": "contracts/DepositNGetGameToken.sol",
  "abi": [
    {
      "inputs": [
        {
          "internalType": "address",
          "name": "_owner",
          "type": "address"
        },
        {
          "internalType": "address",
          "name": "_gameToken",
          "type": "address"
        },
        {
          "internalType": "address",
          "name": "_usdtAddress",
          "type": "address"
        },
        {
          "internalType": "address",
          "name": "_usdcAddress",
          "type": "address"
        }
      ],
      "stateMutability": "nonpayable",
      "type": "constructor"
    },
    {
      "inputs": [],
      "name": "ReentrancyGuardReentrantCall",
      "type": "error"
    },
    {
      "anonymous": false,
      "inputs": [
        {
          "indexed": false,
          "internalType": "uint256",
          "name": "amount",
          "type": "uint256"
        }
      ],
      "name": "TokensDeposited",
      "type": "event"
    },
    {
      "anonymous": false,
      "inputs": [
        {
          "indexed": false,
          "internalType": "address",
          "name": "buyer",
          "type": "address"
        },
        {
          "indexed": false,
          "internalType": "uint256",
          "name": "amount",
          "type": "uint256"
        }
      ],
      "name": "TokensPurchased",
      "type": "event"
    },
    {
      "anonymous": false,
      "inputs": [
        {
          "indexed": false,
          "internalType": "uint256",
          "name": "amount",
          "type": "uint256"
        }
      ],
      "name": "TokensWithdrawn",
      "type": "event"
    },
    {
      "inputs": [
        {
          "internalType": "uint256",
          "name": "amt",
          "type": "uint256"
        }
      ],
      "name": "AddUSDC",
      "outputs": [],
      "stateMutability": "nonpayable",
      "type": "function"
    },
    {
      "inputs": [
        {
          "internalType": "uint256",
          "name": "amt",
          "type": "uint256"
        }
      ],
      "name": "AddUSDT",
      "outputs": [],
      "stateMutability": "nonpayable",
      "type": "function"
    },
    {
      "inputs": [],
      "name": "TOKEN_PRICE",
      "outputs": [
        {
          "internalType": "uint256",
          "name": "",
          "type": "uint256"
        }
      ],
      "stateMutability": "view",
      "type": "function"
    },
    {
      "inputs": [],
      "name": "USDC",
      "outputs": [
        {
          "internalType": "contract IERC20",
          "name": "",
          "type": "address"
        }
      ],
      "stateMutability": "view",
      "type": "function"
    },
    {
      "inputs": [],
      "name": "USDT",
      "outputs": [
        {
          "internalType": "contract IERC20",
          "name": "",
          "type": "address"
        }
      ],
      "stateMutability": "view",
      "type": "function"
    },
    {
      "inputs": [
        {
          "internalType": "uint256",
          "name": "GTAmt",
          "type": "uint256"
        }
      ],
      "name": "WithdrawUSDT_with_GT",
      "outputs": [],
      "stateMutability": "nonpayable",
      "type": "function"
    },
    {
      "inputs": [
        {
          "internalType": "uint256",
          "name": "usdcAmount",
          "type": "uint256"
        }
      ],
      "name": "buyTokensWithUSDC",
      "outputs": [],
      "stateMutability": "nonpayable",
      "type": "function"
    },
    {
      "inputs": [
        {
          "internalType": "uint256",
          "name": "usdtAmount",
          "type": "uint256"
        }
      ],
      "name": "buyTokensWithUSDT",
      "outputs": [],
      "stateMutability": "nonpayable",
      "type": "function"
    },
    {
      "inputs": [
        {
          "internalType": "uint256",
          "name": "amount",
          "type": "uint256"
        }
      ],
      "name": "depositGameTokens",
      "outputs": [],
      "stateMutability": "nonpayable",
      "type": "function"
    },
    {
      "inputs": [],
      "name": "gameToken",
      "outputs": [
        {
          "internalType": "contract IERC20",
          "name": "",
          "type": "address"
        }
      ],
      "stateMutability": "view",
      "type": "function"
    },
    {
      "inputs": [],
      "name": "getRemainingTokens",
      "outputs": [
        {
          "internalType": "uint256",
          "name": "",
          "type": "uint256"
        }
      ],
      "stateMutability": "view",
      "type": "function"
    },
    {
      "inputs": [
        {
          "internalType": "address",
          "name": "user",
          "type": "address"
        }
      ],
      "name": "getTokensPurchasedByUser",
      "outputs": [
        {
          "internalType": "uint256",
          "name": "",
          "type": "uint256"
        }
      ],
      "stateMutability": "view",
      "type": "function"
    },
    {
      "inputs": [],
      "name": "getTotalGameTokens",
      "outputs": [
        {
          "internalType": "uint256",
          "name": "",
          "type": "uint256"
        }
      ],
      "stateMutability": "view",
      "type": "function"
    },
    {
      "inputs": [],
      "name": "owner",
      "outputs": [
        {
          "internalType": "address",
          "name": "",
          "type": "address"
        }
      ],
      "stateMutability": "view",
      "type": "function"
    },
    {
      "inputs": [],
      "name": "pause",
      "outputs": [],
      "stateMutability": "nonpayable",
      "type": "function"
    },
    {
      "inputs": [],
      "name": "paused",
      "outputs": [
        {
          "internalType": "bool",
          "name": "",
          "type": "bool"
        }
      ],
      "stateMutability": "view",
      "type": "function"
    },
    {
      "inputs": [
        {
          "internalType": "address",
          "name": "",
          "type": "address"
        }
      ],
      "name": "tokensPurchased",
      "outputs": [
        {
          "internalType": "uint256",
          "name": "",
          "type": "uint256"
        }
      ],
      "stateMutability": "view",
      "type": "function"
    },
    {
      "inputs": [],
      "name": "totalCollectedUSDC",
      "outputs": [
        {
          "internalType": "uint256",
          "name": "",
          "type": "uint256"
        }
      ],
      "stateMutability": "view",
      "type": "function"
    },
    {
      "inputs": [],
      "name": "totalCollectedUSDT",
      "outputs": [
        {
          "internalType": "uint256",
          "name": "",
          "type": "uint256"
        }
      ],
      "stateMutability": "view",
      "type": "function"
    },
    {
      "inputs": [],
      "name": "totalGameTokens",
      "outputs": [
        {
          "internalType": "uint256",
          "name": "",
          "type": "uint256"
        }
      ],
      "stateMutability": "view",
      "type": "function"
    },
    {
      "inputs": [],
      "name": "unpause",
      "outputs": [],
      "stateMutability": "nonpayable",
      "type": "function"
    },
    {
      "inputs": [
        {
          "internalType": "uint256",
          "name": "_amount",
          "type": "uint256"
        }
      ],
      "name": "withdrawCollectedUSDC",
      "outputs": [],
      "stateMutability": "nonpayable",
      "type": "function"
    },
    {
      "inputs": [
        {
          "internalType": "uint256",
          "name": "_amount",
          "type": "uint256"
        }
      ],
      "name": "withdrawCollectedUSDT",
      "outputs": [],
      "stateMutability": "nonpayable",
      "type": "function"
    },
    {
      "inputs": [
        {
          "internalType": "uint256",
          "name": "amount",
          "type": "uint256"
        }
      ],
      "name": "withdrawGameTokens",
      "outputs": [],
      "stateMutability": "nonpayable",
      "type": "function"
    },
    {
      "stateMutability": "payable",
      "type": "receive"
    }
  ],
  "bytecode": "0x60806040523480156200001157600080fd5b50604051620034383803806200343883398181016040528101906200003791906200030d565b6001600081905550600073ffffffffffffffffffffffffffffffffffffffff168373ffffffffffffffffffffffffffffffffffffffff1603620000b1576040517f08c379a0000000000000000000000000000000000000000000000000000000008152600401620000a890620003e0565b60405180910390fd5b600073ffffffffffffffffffffffffffffffffffffffff168273ffffffffffffffffffffffffffffffffffffffff160362000123576040517f08c379a00000000000000000000000000000000000000000000000000000000081526004016200011a9062000452565b60405180910390fd5b600073ffffffffffffffffffffffffffffffffffffffff168173ffffffffffffffffffffffffffffffffffffffff160362000195576040517f08c379a00000000000000000000000000000000000000000000000000000000081526004016200018c90620004c4565b60405180910390fd5b82600260006101000a81548173ffffffffffffffffffffffffffffffffffffffff021916908373ffffffffffffffffffffffffffffffffffffffff16021790555081600360006101000a81548173ffffffffffffffffffffffffffffffffffffffff021916908373ffffffffffffffffffffffffffffffffffffffff16021790555080600460006101000a81548173ffffffffffffffffffffffffffffffffffffffff021916908373ffffffffffffffffffffffffffffffffffffffff16021790555083600160006101000a81548173ffffffffffffffffffffffffffffffffffffffff021916908373ffffffffffffffffffffffffffffffffffffffff16021790555050505050620004e6565b600080fd5b600073ffffffffffffffffffffffffffffffffffffffff82169050919050565b6000620002d582620002a8565b9050919050565b620002e781620002c8565b8114620002f357600080fd5b50565b6000815190506200030781620002dc565b92915050565b600080600080608085870312156200032a5762000329620002a3565b5b60006200033a87828801620002f6565b94505060206200034d87828801620002f6565b93505060406200036087828801620002f6565b92505060606200037387828801620002f6565b91505092959194509250565b600082825260208201905092915050565b7f496e76616c69642070726573616c6520746f6b656e2061646472657373000000600082015250565b6000620003c8601d836200037f565b9150620003d58262000390565b602082019050919050565b60006020820190508181036000830152620003fb81620003b9565b9050919050565b7f496e76616c696420555344542061646472657373000000000000000000000000600082015250565b60006200043a6014836200037f565b9150620004478262000402565b602082019050919050565b600060208201905081810360008301526200046d816200042b565b9050919050565b7f496e76616c696420555344432061646472657373000000000000000000000000600082015250565b6000620004ac6014836200037f565b9150620004b98262000474565b602082019050919050565b60006020820190508181036000830152620004df816200049d565b9050919050565b612f4280620004f66000396000f3fe60806040526004361061014e5760003560e01c8063686d389b116100b6578063b5cd4e7e1161006f578063b5cd4e7e1461043c578063c3dfdae614610479578063c54e44eb146104a4578063d2d8cb67146104cf578063f6619443146104fa578063f8ffde731461052357610155565b8063686d389b146103525780638456cb591461037b57806389a30271146103925780638da5cb5b146103bd578063a0e50734146103e8578063af35ae271461041157610155565b8063433e290a11610108578063433e290a146102545780634ca611621461027d5780635449101e146102a85780635c975abb146102d35780635ef8086f146102fe578063608158511461032757610155565b8062fe8edc1461015a578063199d0a5b146101835780631dad1668146101ac5780632ad92740146101d55780632f11bb08146102125780633f4ba83a1461023d57610155565b3661015557005b600080fd5b34801561016657600080fd5b50610181600480360381019061017c91906122b8565b61054c565b005b34801561018f57600080fd5b506101aa60048036038101906101a591906122b8565b610a64565b005b3480156101b857600080fd5b506101d360048036038101906101ce91906122b8565b610c6b565b005b3480156101e157600080fd5b506101fc60048036038101906101f79190612343565b610df8565b604051610209919061237f565b60405180910390f35b34801561021e57600080fd5b50610227610e10565b604051610234919061237f565b60405180910390f35b34801561024957600080fd5b50610252610e16565b005b34801561026057600080fd5b5061027b600480360381019061027691906122b8565b610ec3565b005b34801561028957600080fd5b50610292611154565b60405161029f919061237f565b60405180910390f35b3480156102b457600080fd5b506102bd61115a565b6040516102ca919061237f565b60405180910390f35b3480156102df57600080fd5b506102e8611164565b6040516102f591906123b5565b60405180910390f35b34801561030a57600080fd5b50610325600480360381019061032091906122b8565b611177565b005b34801561033357600080fd5b5061033c61168f565b604051610349919061237f565b60405180910390f35b34801561035e57600080fd5b50610379600480360381019061037491906122b8565b611695565b005b34801561038757600080fd5b50610390611859565b005b34801561039e57600080fd5b506103a7611906565b6040516103b4919061242f565b60405180910390f35b3480156103c957600080fd5b506103d261192c565b6040516103df9190612459565b60405180910390f35b3480156103f457600080fd5b5061040f600480360381019061040a91906122b8565b611952565b005b34801561041d57600080fd5b50610426611be3565b604051610433919061237f565b60405180910390f35b34801561044857600080fd5b50610463600480360381019061045e9190612343565b611c86565b604051610470919061237f565b60405180910390f35b34801561048557600080fd5b5061048e611ccf565b60405161049b919061242f565b60405180910390f35b3480156104b057600080fd5b506104b9611cf5565b6040516104c6919061242f565b60405180910390f35b3480156104db57600080fd5b506104e4611d1b565b6040516104f1919061237f565b60405180910390f35b34801561050657600080fd5b50610521600480360381019061051c91906122b8565b611d26565b005b34801561052f57600080fd5b5061054a600480360381019061054591906122b8565b6120a0565b005b61055461222d565b600960009054906101000a900460ff16156105a4576040517f08c379a000000000000000000000000000000000000000000000000000000000815260040161059b906124d1565b60405180910390fd5b671bc16d674ec800008110156105ef576040517f08c379a00000000000000000000000000000000000000000000000000000000081526004016105e69061253d565b60405180910390fd5b600066038d7ea4c68000670de0b6b3a76400008361060d919061258c565b61061791906125fd565b905080600260009054906101000a900473ffffffffffffffffffffffffffffffffffffffff1673ffffffffffffffffffffffffffffffffffffffff166370a08231306040518263ffffffff1660e01b81526004016106759190612459565b602060405180830381865afa158015610692573d6000803e3d6000fd5b505050506040513d601f19601f820116820180604052508101906106b69190612643565b10156106f7576040517f08c379a00000000000000000000000000000000000000000000000000000000081526004016106ee906126bc565b60405180910390fd5b81600460009054906101000a900473ffffffffffffffffffffffffffffffffffffffff1673ffffffffffffffffffffffffffffffffffffffff1663dd62ed3e33306040518363ffffffff1660e01b81526004016107559291906126dc565b602060405180830381865afa158015610772573d6000803e3d6000fd5b505050506040513d601f19601f820116820180604052508101906107969190612643565b10156107d7576040517f08c379a00000000000000000000000000000000000000000000000000000000081526004016107ce90612751565b60405180910390fd5b600460009054906101000a900473ffffffffffffffffffffffffffffffffffffffff1673ffffffffffffffffffffffffffffffffffffffff166323b872dd3330856040518463ffffffff1660e01b815260040161083693929190612771565b6020604051808303816000875af1158015610855573d6000803e3d6000fd5b505050506040513d601f19601f8201168201806040525081019061087991906127d4565b6108b8576040517f08c379a00000000000000000000000000000000000000000000000000000000081526004016108af9061284d565b60405180910390fd5b81600760008282546108ca919061286d565b9250508190555080600560003373ffffffffffffffffffffffffffffffffffffffff1673ffffffffffffffffffffffffffffffffffffffff1681526020019081526020016000206000828254610920919061286d565b92505081905550600260009054906101000a900473ffffffffffffffffffffffffffffffffffffffff1673ffffffffffffffffffffffffffffffffffffffff1663a9059cbb33836040518363ffffffff1660e01b81526004016109849291906128a1565b6020604051808303816000875af11580156109a3573d6000803e3d6000fd5b505050506040513d601f19601f820116820180604052508101906109c791906127d4565b610a06576040517f08c379a00000000000000000000000000000000000000000000000000000000081526004016109fd90612916565b60405180910390fd5b8060086000828254610a189190612936565b925050819055507f8f28852646c20cc973d3a8218f7eefed58c25c909f78f0265af4818c3d4dc2713382604051610a509291906128a1565b60405180910390a150610a61612273565b50565b600160009054906101000a900473ffffffffffffffffffffffffffffffffffffffff1673ffffffffffffffffffffffffffffffffffffffff163373ffffffffffffffffffffffffffffffffffffffff1614610af4576040517f08c379a0000000000000000000000000000000000000000000000000000000008152600401610aeb906129b6565b60405180910390fd5b806008541015610b39576040517f08c379a0000000000000000000000000000000000000000000000000000000008152600401610b3090612a22565b60405180910390fd5b600260009054906101000a900473ffffffffffffffffffffffffffffffffffffffff1673ffffffffffffffffffffffffffffffffffffffff1663a9059cbb33836040518363ffffffff1660e01b8152600401610b969291906128a1565b6020604051808303816000875af1158015610bb5573d6000803e3d6000fd5b505050506040513d601f19601f82011682018060405250810190610bd991906127d4565b610c18576040517f08c379a0000000000000000000000000000000000000000000000000000000008152600401610c0f90612916565b60405180910390fd5b8060086000828254610c2a9190612936565b925050819055507f9c6393f251205f9e03559951cab4c9ae71767b6174f77944a5b0c2fa51fbda9f81604051610c60919061237f565b60405180910390a150565b600160009054906101000a900473ffffffffffffffffffffffffffffffffffffffff1673ffffffffffffffffffffffffffffffffffffffff163373ffffffffffffffffffffffffffffffffffffffff1614610cfb576040517f08c379a0000000000000000000000000000000000000000000000000000000008152600401610cf2906129b6565b60405180910390fd5b600360009054906101000a900473ffffffffffffffffffffffffffffffffffffffff1673ffffffffffffffffffffffffffffffffffffffff166323b872dd3330846040518463ffffffff1660e01b8152600401610d5a93929190612771565b6020604051808303816000875af1158015610d79573d6000803e3d6000fd5b505050506040513d601f19601f82011682018060405250810190610d9d91906127d4565b610ddc576040517f08c379a0000000000000000000000000000000000000000000000000000000008152600401610dd390612a8e565b60405180910390fd5b8060066000828254610dee919061286d565b9250508190555050565b60056020528060005260406000206000915090505481565b60065481565b600160009054906101000a900473ffffffffffffffffffffffffffffffffffffffff1673ffffffffffffffffffffffffffffffffffffffff163373ffffffffffffffffffffffffffffffffffffffff1614610ea6576040517f08c379a0000000000000000000000000000000000000000000000000000000008152600401610e9d906129b6565b60405180910390fd5b6000600960006101000a81548160ff021916908315150217905550565b600160009054906101000a900473ffffffffffffffffffffffffffffffffffffffff1673ffffffffffffffffffffffffffffffffffffffff163373ffffffffffffffffffffffffffffffffffffffff1614610f53576040517f08c379a0000000000000000000000000000000000000000000000000000000008152600401610f4a906129b6565b60405180910390fd5b6000600360009054906101000a900473ffffffffffffffffffffffffffffffffffffffff1673ffffffffffffffffffffffffffffffffffffffff166370a08231306040518263ffffffff1660e01b8152600401610fb09190612459565b602060405180830381865afa158015610fcd573d6000803e3d6000fd5b505050506040513d601f19601f82011682018060405250810190610ff19190612643565b905080821115611036576040517f08c379a000000000000000000000000000000000000000000000000000000000815260040161102d90612afa565b60405180910390fd5b600360009054906101000a900473ffffffffffffffffffffffffffffffffffffffff1673ffffffffffffffffffffffffffffffffffffffff1663a9059cbb600160009054906101000a900473ffffffffffffffffffffffffffffffffffffffff16846040518363ffffffff1660e01b81526004016110b59291906128a1565b6020604051808303816000875af11580156110d4573d6000803e3d6000fd5b505050506040513d601f19601f820116820180604052508101906110f891906127d4565b611137576040517f08c379a000000000000000000000000000000000000000000000000000000000815260040161112e90612b66565b60405180910390fd5b81600660008282546111499190612936565b925050819055505050565b60075481565b6000600854905090565b600960009054906101000a900460ff1681565b61117f61222d565b600960009054906101000a900460ff16156111cf576040517f08c379a00000000000000000000000000000000000000000000000000000000081526004016111c6906124d1565b60405180910390fd5b671bc16d674ec8000081101561121a576040517f08c379a000000000000000000000000000000000000000000000000000000000815260040161121190612bd2565b60405180910390fd5b600066038d7ea4c68000670de0b6b3a764000083611238919061258c565b61124291906125fd565b905080600260009054906101000a900473ffffffffffffffffffffffffffffffffffffffff1673ffffffffffffffffffffffffffffffffffffffff166370a08231306040518263ffffffff1660e01b81526004016112a09190612459565b602060405180830381865afa1580156112bd573d6000803e3d6000fd5b505050506040513d601f19601f820116820180604052508101906112e19190612643565b1015611322576040517f08c379a0000000000000000000000000000000000000000000000000000000008152600401611319906126bc565b60405180910390fd5b81600360009054906101000a900473ffffffffffffffffffffffffffffffffffffffff1673ffffffffffffffffffffffffffffffffffffffff1663dd62ed3e33306040518363ffffffff1660e01b81526004016113809291906126dc565b602060405180830381865afa15801561139d573d6000803e3d6000fd5b505050506040513d601f19601f820116820180604052508101906113c19190612643565b1015611402576040517f08c379a00000000000000000000000000000000000000000000000000000000081526004016113f990612c3e565b60405180910390fd5b600360009054906101000a900473ffffffffffffffffffffffffffffffffffffffff1673ffffffffffffffffffffffffffffffffffffffff166323b872dd3330856040518463ffffffff1660e01b815260040161146193929190612771565b6020604051808303816000875af1158015611480573d6000803e3d6000fd5b505050506040513d601f19601f820116820180604052508101906114a491906127d4565b6114e3576040517f08c379a00000000000000000000000000000000000000000000000000000000081526004016114da90612caa565b60405180910390fd5b81600660008282546114f5919061286d565b9250508190555080600560003373ffffffffffffffffffffffffffffffffffffffff1673ffffffffffffffffffffffffffffffffffffffff168152602001908152602001600020600082825461154b919061286d565b92505081905550600260009054906101000a900473ffffffffffffffffffffffffffffffffffffffff1673ffffffffffffffffffffffffffffffffffffffff1663a9059cbb33836040518363ffffffff1660e01b81526004016115af9291906128a1565b6020604051808303816000875af11580156115ce573d6000803e3d6000fd5b505050506040513d601f19601f820116820180604052508101906115f291906127d4565b611631576040517f08c379a000000000000000000000000000000000000000000000000000000000815260040161162890612916565b60405180910390fd5b80600860008282546116439190612936565b925050819055507f8f28852646c20cc973d3a8218f7eefed58c25c909f78f0265af4818c3d4dc271338260405161167b9291906128a1565b60405180910390a15061168c612273565b50565b60085481565b600160009054906101000a900473ffffffffffffffffffffffffffffffffffffffff1673ffffffffffffffffffffffffffffffffffffffff163373ffffffffffffffffffffffffffffffffffffffff1614611725576040517f08c379a000000000000000000000000000000000000000000000000000000000815260040161171c906129b6565b60405180910390fd5b600260009054906101000a900473ffffffffffffffffffffffffffffffffffffffff1673ffffffffffffffffffffffffffffffffffffffff166323b872dd3330846040518463ffffffff1660e01b815260040161178493929190612771565b6020604051808303816000875af11580156117a3573d6000803e3d6000fd5b505050506040513d601f19601f820116820180604052508101906117c791906127d4565b611806576040517f08c379a00000000000000000000000000000000000000000000000000000000081526004016117fd90612916565b60405180910390fd5b8060086000828254611818919061286d565b925050819055507f77acf75e237f9aae98f997395832d522bdb695e4a9bd07704936aa889a3667d18160405161184e919061237f565b60405180910390a150565b600160009054906101000a900473ffffffffffffffffffffffffffffffffffffffff1673ffffffffffffffffffffffffffffffffffffffff163373ffffffffffffffffffffffffffffffffffffffff16146118e9576040517f08c379a00000000000000000000000000000000000000000000000000000000081526004016118e0906129b6565b60405180910390fd5b6001600960006101000a81548160ff021916908315150217905550565b600460009054906101000a900473ffffffffffffffffffffffffffffffffffffffff1681565b600160009054906101000a900473ffffffffffffffffffffffffffffffffffffffff1681565b600160009054906101000a900473ffffffffffffffffffffffffffffffffffffffff1673ffffffffffffffffffffffffffffffffffffffff163373ffffffffffffffffffffffffffffffffffffffff16146119e2576040517f08c379a00000000000000000000000000000000000000000000000000000000081526004016119d9906129b6565b60405180910390fd5b6000600460009054906101000a900473ffffffffffffffffffffffffffffffffffffffff1673ffffffffffffffffffffffffffffffffffffffff166370a08231306040518263ffffffff1660e01b8152600401611a3f9190612459565b602060405180830381865afa158015611a5c573d6000803e3d6000fd5b505050506040513d601f19601f82011682018060405250810190611a809190612643565b905080821115611ac5576040517f08c379a0000000000000000000000000000000000000000000000000000000008152600401611abc90612d16565b60405180910390fd5b600460009054906101000a900473ffffffffffffffffffffffffffffffffffffffff1673ffffffffffffffffffffffffffffffffffffffff1663a9059cbb600160009054906101000a900473ffffffffffffffffffffffffffffffffffffffff16846040518363ffffffff1660e01b8152600401611b449291906128a1565b6020604051808303816000875af1158015611b63573d6000803e3d6000fd5b505050506040513d601f19601f82011682018060405250810190611b8791906127d4565b611bc6576040517f08c379a0000000000000000000000000000000000000000000000000000000008152600401611bbd90612d82565b60405180910390fd5b8160076000828254611bd89190612936565b925050819055505050565b6000600260009054906101000a900473ffffffffffffffffffffffffffffffffffffffff1673ffffffffffffffffffffffffffffffffffffffff166370a08231306040518263ffffffff1660e01b8152600401611c409190612459565b602060405180830381865afa158015611c5d573d6000803e3d6000fd5b505050506040513d601f19601f82011682018060405250810190611c819190612643565b905090565b6000600560008373ffffffffffffffffffffffffffffffffffffffff1673ffffffffffffffffffffffffffffffffffffffff168152602001908152602001600020549050919050565b600260009054906101000a900473ffffffffffffffffffffffffffffffffffffffff1681565b600360009054906101000a900473ffffffffffffffffffffffffffffffffffffffff1681565b66038d7ea4c6800081565b611d2e61222d565b69021e19e0c9bab2400000811015611d7b576040517f08c379a0000000000000000000000000000000000000000000000000000000008152600401611d7290612e14565b60405180910390fd5b60006103e882611d8b91906125fd565b905080600360009054906101000a900473ffffffffffffffffffffffffffffffffffffffff1673ffffffffffffffffffffffffffffffffffffffff166370a08231306040518263ffffffff1660e01b8152600401611de99190612459565b602060405180830381865afa158015611e06573d6000803e3d6000fd5b505050506040513d601f19601f82011682018060405250810190611e2a9190612643565b1015611e6b576040517f08c379a0000000000000000000000000000000000000000000000000000000008152600401611e6290612e80565b60405180910390fd5b600260009054906101000a900473ffffffffffffffffffffffffffffffffffffffff1673ffffffffffffffffffffffffffffffffffffffff166323b872dd3330856040518463ffffffff1660e01b8152600401611eca93929190612771565b6020604051808303816000875af1158015611ee9573d6000803e3d6000fd5b505050506040513d601f19601f82011682018060405250810190611f0d91906127d4565b611f4c576040517f08c379a0000000000000000000000000000000000000000000000000000000008152600401611f4390612eec565b60405180910390fd5b600360009054906101000a900473ffffffffffffffffffffffffffffffffffffffff1673ffffffffffffffffffffffffffffffffffffffff1663a9059cbb33836040518363ffffffff1660e01b8152600401611fa99291906128a1565b6020604051808303816000875af1158015611fc8573d6000803e3d6000fd5b505050506040513d601f19601f82011682018060405250810190611fec91906127d4565b61202b576040517f08c379a000000000000000000000000000000000000000000000000000000000815260040161202290612caa565b60405180910390fd5b816008600082825461203d919061286d565b9250508190555080600660008282546120569190612936565b925050819055507f77acf75e237f9aae98f997395832d522bdb695e4a9bd07704936aa889a3667d18260405161208c919061237f565b60405180910390a15061209d612273565b50565b600160009054906101000a900473ffffffffffffffffffffffffffffffffffffffff1673ffffffffffffffffffffffffffffffffffffffff163373ffffffffffffffffffffffffffffffffffffffff1614612130576040517f08c379a0000000000000000000000000000000000000000000000000000000008152600401612127906129b6565b60405180910390fd5b600460009054906101000a900473ffffffffffffffffffffffffffffffffffffffff1673ffffffffffffffffffffffffffffffffffffffff166323b872dd3330846040518463ffffffff1660e01b815260040161218f93929190612771565b6020604051808303816000875af11580156121ae573d6000803e3d6000fd5b505050506040513d601f19601f820116820180604052508101906121d291906127d4565b612211576040517f08c379a000000000000000000000000000000000000000000000000000000000815260040161220890612a8e565b60405180910390fd5b8060076000828254612223919061286d565b9250508190555050565b600260005403612269576040517f3ee5aeb500000000000000000000000000000000000000000000000000000000815260040160405180910390fd5b6002600081905550565b6001600081905550565b600080fd5b6000819050919050565b61229581612282565b81146122a057600080fd5b50565b6000813590506122b28161228c565b92915050565b6000602082840312156122ce576122cd61227d565b5b60006122dc848285016122a3565b91505092915050565b600073ffffffffffffffffffffffffffffffffffffffff82169050919050565b6000612310826122e5565b9050919050565b61232081612305565b811461232b57600080fd5b50565b60008135905061233d81612317565b92915050565b6000602082840312156123595761235861227d565b5b60006123678482850161232e565b91505092915050565b61237981612282565b82525050565b60006020820190506123946000830184612370565b92915050565b60008115159050919050565b6123af8161239a565b82525050565b60006020820190506123ca60008301846123a6565b92915050565b6000819050919050565b60006123f56123f06123eb846122e5565b6123d0565b6122e5565b9050919050565b6000612407826123da565b9050919050565b6000612419826123fc565b9050919050565b6124298161240e565b82525050565b60006020820190506124446000830184612420565b92915050565b61245381612305565b82525050565b600060208201905061246e600083018461244a565b92915050565b600082825260208201905092915050565b7f436f6e7472616374206973207061757365640000000000000000000000000000600082015250565b60006124bb601283612474565b91506124c682612485565b602082019050919050565b600060208201905081810360008301526124ea816124ae565b9050919050565b7f4d7573742073656e64206174206c656173742032205553444300000000000000600082015250565b6000612527601983612474565b9150612532826124f1565b602082019050919050565b600060208201905081810360008301526125568161251a565b9050919050565b7f4e487b7100000000000000000000000000000000000000000000000000000000600052601160045260246000fd5b600061259782612282565b91506125a283612282565b92508282026125b081612282565b915082820484148315176125c7576125c661255d565b5b5092915050565b7f4e487b7100000000000000000000000000000000000000000000000000000000600052601260045260246000fd5b600061260882612282565b915061261383612282565b925082612623576126226125ce565b5b828204905092915050565b60008151905061263d8161228c565b92915050565b6000602082840312156126595761265861227d565b5b60006126678482850161262e565b91505092915050565b7f4e6f7420656e6f75676820746f6b656e7320617661696c61626c650000000000600082015250565b60006126a6601b83612474565b91506126b182612670565b602082019050919050565b600060208201905081810360008301526126d581612699565b9050919050565b60006040820190506126f1600083018561244a565b6126fe602083018461244a565b9392505050565b7f496e73756666696369656e74205553444320616c6c6f77616e63650000000000600082015250565b600061273b601b83612474565b915061274682612705565b602082019050919050565b6000602082019050818103600083015261276a8161272e565b9050919050565b6000606082019050612786600083018661244a565b612793602083018561244a565b6127a06040830184612370565b949350505050565b6127b18161239a565b81146127bc57600080fd5b50565b6000815190506127ce816127a8565b92915050565b6000602082840312156127ea576127e961227d565b5b60006127f8848285016127bf565b91505092915050565b7f55534443207472616e73666572206661696c6564000000000000000000000000600082015250565b6000612837601483612474565b915061284282612801565b602082019050919050565b600060208201905081810360008301526128668161282a565b9050919050565b600061287882612282565b915061288383612282565b925082820190508082111561289b5761289a61255d565b5b92915050565b60006040820190506128b6600083018561244a565b6128c36020830184612370565b9392505050565b7f546f6b656e207472616e73666572206661696c65640000000000000000000000600082015250565b6000612900601583612474565b915061290b826128ca565b602082019050919050565b6000602082019050818103600083015261292f816128f3565b9050919050565b600061294182612282565b915061294c83612282565b92508282039050818111156129645761296361255d565b5b92915050565b7f4e6f7420616e206f776e65720000000000000000000000000000000000000000600082015250565b60006129a0600c83612474565b91506129ab8261296a565b602082019050919050565b600060208201905081810360008301526129cf81612993565b9050919050565b7f4e6f7420456e6f75676820546f6b656e7320746f205769746864726177000000600082015250565b6000612a0c601d83612474565b9150612a17826129d6565b602082019050919050565b60006020820190508181036000830152612a3b816129ff565b9050919050565b7f696e737566666963656e74205553445400000000000000000000000000000000600082015250565b6000612a78601083612474565b9150612a8382612a42565b602082019050919050565b60006020820190508181036000830152612aa781612a6b565b9050919050565b7f4e6f742073756666696369656e74205553445420746f20776974686472617700600082015250565b6000612ae4601f83612474565b9150612aef82612aae565b602082019050919050565b60006020820190508181036000830152612b1381612ad7565b9050919050565b7f55534454207472616e7366657220746f206f776e6572206661696c6564000000600082015250565b6000612b50601d83612474565b9150612b5b82612b1a565b602082019050919050565b60006020820190508181036000830152612b7f81612b43565b9050919050565b7f4d7573742073656e64206174206c656173742032205553445400000000000000600082015250565b6000612bbc601983612474565b9150612bc782612b86565b602082019050919050565b60006020820190508181036000830152612beb81612baf565b9050919050565b7f496e73756666696369656e74205553445420616c6c6f77616e63650000000000600082015250565b6000612c28601b83612474565b9150612c3382612bf2565b602082019050919050565b60006020820190508181036000830152612c5781612c1b565b9050919050565b7f55534454207472616e73666572206661696c6564000000000000000000000000600082015250565b6000612c94601483612474565b9150612c9f82612c5e565b602082019050919050565b60006020820190508181036000830152612cc381612c87565b9050919050565b7f4e6f742073756666696369656e74205553444320746f20776974686472617700600082015250565b6000612d00601f83612474565b9150612d0b82612cca565b602082019050919050565b60006020820190508181036000830152612d2f81612cf3565b9050919050565b7f55534443207472616e7366657220746f206f776e6572206661696c6564000000600082015250565b6000612d6c601d83612474565b9150612d7782612d36565b602082019050919050565b60006020820190508181036000830152612d9b81612d5f565b9050919050565b7f596f75206e656564206174206c656173742031302c3030302047616d6520546f60008201527f6b656e7300000000000000000000000000000000000000000000000000000000602082015250565b6000612dfe602483612474565b9150612e0982612da2565b604082019050919050565b60006020820190508181036000830152612e2d81612df1565b9050919050565b7f4e6f7420656e6f756768205553445420696e20636f6e74726163740000000000600082015250565b6000612e6a601b83612474565b9150612e7582612e34565b602082019050919050565b60006020820190508181036000830152612e9981612e5d565b9050919050565b7f475420546f6b656e207472616e73666572206661696c65640000000000000000600082015250565b6000612ed6601883612474565b9150612ee182612ea0565b602082019050919050565b60006020820190508181036000830152612f0581612ec9565b905091905056fea2646970667358221220fe69a43d98b874a6478b014f5060083e70488231f3f0ade04bfdf0088a5dd48364736f6c63430008140033",
  "linkReferences": {},
  "deployedLinkReferences": {}
}